{
  "contractName": "TocoiMarket",
  "abi": [
    {
      "inputs": [
        {
          "internalType": "contract Tocoi",
          "name": "_token",
          "type": "address"
        }
      ],
      "stateMutability": "nonpayable",
      "type": "constructor"
    },
    {
      "anonymous": false,
      "inputs": [
        {
          "indexed": false,
          "internalType": "uint256",
          "name": "price",
          "type": "uint256"
        }
      ],
      "name": "AlteraPreco",
      "type": "event"
    },
    {
      "anonymous": false,
      "inputs": [
        {
          "indexed": false,
          "internalType": "uint256",
          "name": "id",
          "type": "uint256"
        },
        {
          "indexed": false,
          "internalType": "uint256",
          "name": "price",
          "type": "uint256"
        },
        {
          "indexed": false,
          "internalType": "address",
          "name": "owner",
          "type": "address"
        }
      ],
      "name": "CompraCota",
      "type": "event"
    },
    {
      "anonymous": false,
      "inputs": [
        {
          "indexed": false,
          "internalType": "uint256",
          "name": "id",
          "type": "uint256"
        },
        {
          "indexed": false,
          "internalType": "uint256",
          "name": "taxaPaga",
          "type": "uint256"
        }
      ],
      "name": "DevolveCota",
      "type": "event"
    },
    {
      "inputs": [],
      "name": "administradora",
      "outputs": [
        {
          "internalType": "address",
          "name": "",
          "type": "address"
        }
      ],
      "stateMutability": "view",
      "type": "function",
      "constant": true
    },
    {
      "inputs": [],
      "name": "area",
      "outputs": [
        {
          "internalType": "uint256",
          "name": "",
          "type": "uint256"
        }
      ],
      "stateMutability": "view",
      "type": "function",
      "constant": true
    },
    {
      "inputs": [],
      "name": "comprasCount",
      "outputs": [
        {
          "internalType": "uint256",
          "name": "",
          "type": "uint256"
        }
      ],
      "stateMutability": "view",
      "type": "function",
      "constant": true
    },
    {
      "inputs": [
        {
          "internalType": "uint256",
          "name": "",
          "type": "uint256"
        }
      ],
      "name": "cotasCompradas",
      "outputs": [
        {
          "internalType": "uint256",
          "name": "id",
          "type": "uint256"
        },
        {
          "internalType": "uint256",
          "name": "precoPago",
          "type": "uint256"
        },
        {
          "internalType": "uint256",
          "name": "qtde",
          "type": "uint256"
        },
        {
          "internalType": "address",
          "name": "owner",
          "type": "address"
        },
        {
          "internalType": "bool",
          "name": "devolvida",
          "type": "bool"
        }
      ],
      "stateMutability": "view",
      "type": "function",
      "constant": true
    },
    {
      "inputs": [],
      "name": "name",
      "outputs": [
        {
          "internalType": "string",
          "name": "",
          "type": "string"
        }
      ],
      "stateMutability": "view",
      "type": "function",
      "constant": true
    },
    {
      "inputs": [],
      "name": "precoTotal",
      "outputs": [
        {
          "internalType": "uint256",
          "name": "",
          "type": "uint256"
        }
      ],
      "stateMutability": "view",
      "type": "function",
      "constant": true
    },
    {
      "inputs": [],
      "name": "taxaInversa",
      "outputs": [
        {
          "internalType": "uint256",
          "name": "",
          "type": "uint256"
        }
      ],
      "stateMutability": "view",
      "type": "function",
      "constant": true
    },
    {
      "inputs": [],
      "name": "token",
      "outputs": [
        {
          "internalType": "contract Tocoi",
          "name": "",
          "type": "address"
        }
      ],
      "stateMutability": "view",
      "type": "function",
      "constant": true
    },
    {
      "inputs": [
        {
          "internalType": "uint256",
          "name": "_price",
          "type": "uint256"
        }
      ],
      "name": "alteraPreco",
      "outputs": [],
      "stateMutability": "nonpayable",
      "type": "function"
    },
    {
      "inputs": [
        {
          "internalType": "uint256",
          "name": "_qtde",
          "type": "uint256"
        }
      ],
      "name": "compraCota",
      "outputs": [],
      "stateMutability": "payable",
      "type": "function",
      "payable": true
    },
    {
      "inputs": [
        {
          "internalType": "uint256",
          "name": "_id",
          "type": "uint256"
        }
      ],
      "name": "devolveCota",
      "outputs": [],
      "stateMutability": "payable",
      "type": "function",
      "payable": true
    }
  ],
  "bytecode": "0x608060405260006005553480156200001657600080fd5b5060405162001e6138038062001e6183398181016040528101906200003c919062000247565b6040518060400160405280600c81526020017f546f636f69204d61726b6574000000000000000000000000000000000000000081525060019081620000829190620004f3565b5061271060028190555060c86003819055507390f8bf6a479f320ead074411a4b0e7944ea8c9c1600460006101000a81548173ffffffffffffffffffffffffffffffffffffffff021916908373ffffffffffffffffffffffffffffffffffffffff1602179055506005600781905550806000806101000a81548173ffffffffffffffffffffffffffffffffffffffff021916908373ffffffffffffffffffffffffffffffffffffffff16021790555060008054906101000a900473ffffffffffffffffffffffffffffffffffffffff1673ffffffffffffffffffffffffffffffffffffffff16630151478c6107d06040518263ffffffff1660e01b81526004016200018e91906200061d565b600060405180830381600087803b158015620001a957600080fd5b505af1158015620001be573d6000803e3d6000fd5b50505050506200063a565b600080fd5b600073ffffffffffffffffffffffffffffffffffffffff82169050919050565b6000620001fb82620001ce565b9050919050565b60006200020f82620001ee565b9050919050565b620002218162000202565b81146200022d57600080fd5b50565b600081519050620002418162000216565b92915050565b60006020828403121562000260576200025f620001c9565b5b6000620002708482850162000230565b91505092915050565b600081519050919050565b7f4e487b7100000000000000000000000000000000000000000000000000000000600052604160045260246000fd5b7f4e487b7100000000000000000000000000000000000000000000000000000000600052602260045260246000fd5b60006002820490506001821680620002fb57607f821691505b602082108103620003115762000310620002b3565b5b50919050565b60008190508160005260206000209050919050565b60006020601f8301049050919050565b600082821b905092915050565b6000600883026200037b7fffffffffffffffffffffffffffffffffffffffffffffffffffffffffffffffff826200033c565b6200038786836200033c565b95508019841693508086168417925050509392505050565b6000819050919050565b6000819050919050565b6000620003d4620003ce620003c8846200039f565b620003a9565b6200039f565b9050919050565b6000819050919050565b620003f083620003b3565b62000408620003ff82620003db565b84845462000349565b825550505050565b600090565b6200041f62000410565b6200042c818484620003e5565b505050565b5b8181101562000454576200044860008262000415565b60018101905062000432565b5050565b601f821115620004a3576200046d8162000317565b62000478846200032c565b8101602085101562000488578190505b620004a062000497856200032c565b83018262000431565b50505b505050565b600082821c905092915050565b6000620004c860001984600802620004a8565b1980831691505092915050565b6000620004e38383620004b5565b9150826002028217905092915050565b620004fe8262000279565b67ffffffffffffffff8111156200051a576200051962000284565b5b620005268254620002e2565b6200053382828562000458565b600060209050601f8311600181146200056b576000841562000556578287015190505b620005628582620004d5565b865550620005d2565b601f1984166200057b8662000317565b60005b82811015620005a5578489015182556001820191506020850194506020810190506200057e565b86831015620005c55784890151620005c1601f891682620004b5565b8355505b6001600288020188555050505b505050505050565b6000819050919050565b600062000605620005ff620005f984620005da565b620003a9565b6200039f565b9050919050565b6200061781620005e4565b82525050565b60006020820190506200063460008301846200060c565b92915050565b611817806200064a6000396000f3fe60806040526004361061009c5760003560e01c806375ee83371161006457806375ee83371461016957806381aac0ea14610194578063add538bd146101d5578063c6fb7459146101f1578063d05a14991461021c578063fc0c546a146102455761009c565b806305824fce146100a1578063063aced4146100cc57806306fdde03146100e85780632dc918ec146101135780634d41892f1461013e575b600080fd5b3480156100ad57600080fd5b506100b6610270565b6040516100c39190610eb4565b60405180910390f35b6100e660048036038101906100e19190610f00565b610276565b005b3480156100f457600080fd5b506100fd6107b6565b60405161010a9190610fbd565b60405180910390f35b34801561011f57600080fd5b50610128610844565b6040516101359190610eb4565b60405180910390f35b34801561014a57600080fd5b5061015361084a565b6040516101609190610eb4565b60405180910390f35b34801561017557600080fd5b5061017e610850565b60405161018b9190611020565b60405180910390f35b3480156101a057600080fd5b506101bb60048036038101906101b69190610f00565b610876565b6040516101cc959493929190611056565b60405180910390f35b6101ef60048036038101906101ea9190610f00565b6108e9565b005b3480156101fd57600080fd5b50610206610d9e565b6040516102139190610eb4565b60405180910390f35b34801561022857600080fd5b50610243600480360381019061023e9190610f00565b610da4565b005b34801561025157600080fd5b5061025a610e77565b6040516102679190611108565b60405180910390f35b60035481565b60006006828154811061028c5761028b611123565b5b90600052602060002090600402016040518060a00160405290816000820154815260200160018201548152602001600282015481526020016003820160009054906101000a900473ffffffffffffffffffffffffffffffffffffffff1673ffffffffffffffffffffffffffffffffffffffff1673ffffffffffffffffffffffffffffffffffffffff1681526020016003820160149054906101000a900460ff1615151515815250509050600081600001511015801561037a57503373ffffffffffffffffffffffffffffffffffffffff16816060015173ffffffffffffffffffffffffffffffffffffffff16145b6103b9576040517f08c379a00000000000000000000000000000000000000000000000000000000081526004016103b09061119e565b60405180910390fd5b60003390506000600460009054906101000a900473ffffffffffffffffffffffffffffffffffffffff16905060075460008054906101000a900473ffffffffffffffffffffffffffffffffffffffff1673ffffffffffffffffffffffffffffffffffffffff166318160ddd6040518163ffffffff1660e01b8152600401602060405180830381865afa158015610453573d6000803e3d6000fd5b505050506040513d601f19601f8201168201806040525081019061047791906111d3565b612710600354610487919061122f565b61049191906112a0565b61049b91906112a0565b612710346104a9919061122f565b10156104ea576040517f08c379a00000000000000000000000000000000000000000000000000000000081526004016104e190611343565b60405180910390fd5b60008060009054906101000a900473ffffffffffffffffffffffffffffffffffffffff1673ffffffffffffffffffffffffffffffffffffffff166370a08231846040518263ffffffff1660e01b81526004016105469190611384565b602060405180830381865afa158015610563573d6000803e3d6000fd5b505050506040513d601f19601f8201168201806040525081019061058791906111d3565b905083604001518110156105d0576040517f08c379a00000000000000000000000000000000000000000000000000000000081526004016105c790611437565b60405180910390fd5b8173ffffffffffffffffffffffffffffffffffffffff166108fc349081150290604051600060405180830381858888f19350505050158015610616573d6000803e3d6000fd5b5060008054906101000a900473ffffffffffffffffffffffffffffffffffffffff1673ffffffffffffffffffffffffffffffffffffffff1663a9059cbb8386604001516040518363ffffffff1660e01b8152600401610676929190611457565b6020604051808303816000875af1158015610695573d6000803e3d6000fd5b505050506040513d601f19601f820116820180604052508101906106b991906114ac565b50600184608001901515908115158152505083600686815481106106e0576106df611123565b5b906000526020600020906004020160008201518160000155602082015181600101556040820151816002015560608201518160030160006101000a81548173ffffffffffffffffffffffffffffffffffffffff021916908373ffffffffffffffffffffffffffffffffffffffff16021790555060808201518160030160146101000a81548160ff0219169083151502179055509050507ff63d3a3128c9ae4d871ebb0d9864655059d5d5ecc47fc76004f973355712ee0485346040516107a79291906114d9565b60405180910390a15050505050565b600180546107c390611531565b80601f01602080910402602001604051908101604052809291908181526020018280546107ef90611531565b801561083c5780601f106108115761010080835404028352916020019161083c565b820191906000526020600020905b81548152906001019060200180831161081f57829003601f168201915b505050505081565b60055481565b60025481565b600460009054906101000a900473ffffffffffffffffffffffffffffffffffffffff1681565b6006818154811061088657600080fd5b90600052602060002090600402016000915090508060000154908060010154908060020154908060030160009054906101000a900473ffffffffffffffffffffffffffffffffffffffff16908060030160149054906101000a900460ff16905085565b600081612710346108fa919061122f565b61090491906112a0565b905060008060009054906101000a900473ffffffffffffffffffffffffffffffffffffffff1673ffffffffffffffffffffffffffffffffffffffff166318160ddd6040518163ffffffff1660e01b8152600401602060405180830381865afa158015610974573d6000803e3d6000fd5b505050506040513d601f19601f8201168201806040525081019061099891906111d3565b6127106003546109a8919061122f565b6109b291906112a0565b9050808210156109f7576040517f08c379a00000000000000000000000000000000000000000000000000000000081526004016109ee906115ae565b60405180910390fd5b6000600460009054906101000a900473ffffffffffffffffffffffffffffffffffffffff169050600033905060008060009054906101000a900473ffffffffffffffffffffffffffffffffffffffff1673ffffffffffffffffffffffffffffffffffffffff166370a08231306040518263ffffffff1660e01b8152600401610a7f9190611020565b602060405180830381865afa158015610a9c573d6000803e3d6000fd5b505050506040513d601f19601f82011682018060405250810190610ac091906111d3565b905085811015610b05576040517f08c379a0000000000000000000000000000000000000000000000000000000008152600401610afc90611666565b60405180910390fd5b8273ffffffffffffffffffffffffffffffffffffffff168273ffffffffffffffffffffffffffffffffffffffff1603610b73576040517f08c379a0000000000000000000000000000000000000000000000000000000008152600401610b6a906116f8565b60405180910390fd5b8273ffffffffffffffffffffffffffffffffffffffff166108fc349081150290604051600060405180830381858888f19350505050158015610bb9573d6000803e3d6000fd5b5060008054906101000a900473ffffffffffffffffffffffffffffffffffffffff1673ffffffffffffffffffffffffffffffffffffffff1663a9059cbb83886040518363ffffffff1660e01b8152600401610c15929190611457565b6020604051808303816000875af1158015610c34573d6000803e3d6000fd5b505050506040513d601f19601f82011682018060405250810190610c5891906114ac565b5060066040518060a0016040528060055481526020013481526020018881526020013373ffffffffffffffffffffffffffffffffffffffff16815260200160001515815250908060018154018082558091505060019003906000526020600020906004020160009091909190915060008201518160000155602082015181600101556040820151816002015560608201518160030160006101000a81548173ffffffffffffffffffffffffffffffffffffffff021916908373ffffffffffffffffffffffffffffffffffffffff16021790555060808201518160030160146101000a81548160ff02191690831515021790555050506006805490506005819055507ffa7f3ae7a2049ef5e96d1d78799214bb624f9413027f8e731cd72258a2e7eae76005543484604051610d8e93929190611718565b60405180910390a1505050505050565b60075481565b600460009054906101000a900473ffffffffffffffffffffffffffffffffffffffff1673ffffffffffffffffffffffffffffffffffffffff163373ffffffffffffffffffffffffffffffffffffffff1614610e34576040517f08c379a0000000000000000000000000000000000000000000000000000000008152600401610e2b906117c1565b60405180910390fd5b806003819055507f2ce01aae60ca47ac8abb711ff211d970b00786c2f4e59c2635c6a902f22b58ec600354604051610e6c9190610eb4565b60405180910390a150565b60008054906101000a900473ffffffffffffffffffffffffffffffffffffffff1681565b6000819050919050565b610eae81610e9b565b82525050565b6000602082019050610ec96000830184610ea5565b92915050565b600080fd5b610edd81610e9b565b8114610ee857600080fd5b50565b600081359050610efa81610ed4565b92915050565b600060208284031215610f1657610f15610ecf565b5b6000610f2484828501610eeb565b91505092915050565b600081519050919050565b600082825260208201905092915050565b60005b83811015610f67578082015181840152602081019050610f4c565b60008484015250505050565b6000601f19601f8301169050919050565b6000610f8f82610f2d565b610f998185610f38565b9350610fa9818560208601610f49565b610fb281610f73565b840191505092915050565b60006020820190508181036000830152610fd78184610f84565b905092915050565b600073ffffffffffffffffffffffffffffffffffffffff82169050919050565b600061100a82610fdf565b9050919050565b61101a81610fff565b82525050565b60006020820190506110356000830184611011565b92915050565b60008115159050919050565b6110508161103b565b82525050565b600060a08201905061106b6000830188610ea5565b6110786020830187610ea5565b6110856040830186610ea5565b6110926060830185611011565b61109f6080830184611047565b9695505050505050565b6000819050919050565b60006110ce6110c96110c484610fdf565b6110a9565b610fdf565b9050919050565b60006110e0826110b3565b9050919050565b60006110f2826110d5565b9050919050565b611102816110e7565b82525050565b600060208201905061111d60008301846110f9565b92915050565b7f4e487b7100000000000000000000000000000000000000000000000000000000600052603260045260246000fd5b7f4964206f752070726f7072696574c3a172696f20696e76c3a16c69646f000000600082015250565b6000611188601d83610f38565b915061119382611152565b602082019050919050565b600060208201905081810360008301526111b78161117b565b9050919050565b6000815190506111cd81610ed4565b92915050565b6000602082840312156111e9576111e8610ecf565b5b60006111f7848285016111be565b91505092915050565b7f4e487b7100000000000000000000000000000000000000000000000000000000600052601160045260246000fd5b600061123a82610e9b565b915061124583610e9b565b925082820261125381610e9b565b9150828204841483151761126a57611269611200565b5b5092915050565b7f4e487b7100000000000000000000000000000000000000000000000000000000600052601260045260246000fd5b60006112ab82610e9b565b91506112b683610e9b565b9250826112c6576112c5611271565b5b828204905092915050565b7f5472616e73666972612061207175616e74696120636f7272657461207061726160008201527f20612074617861206465206465766f6c75c3a7c3a36f00000000000000000000602082015250565b600061132d603683610f38565b9150611338826112d1565b604082019050919050565b6000602082019050818103600083015261135c81611320565b9050919050565b600061136e826110d5565b9050919050565b61137e81611363565b82525050565b60006020820190506113996000830184611375565b92915050565b7f41207175616e74696461646520646520546f636f6920646120636f6e746120c360008201527fa9206d656e6f7220717565206120726566657269646120636f746120636f6d7060208201527f7261646100000000000000000000000000000000000000000000000000000000604082015250565b6000611421604483610f38565b915061142c8261139f565b606082019050919050565b6000602082019050818103600083015261145081611414565b9050919050565b600060408201905061146c6000830185611375565b6114796020830184610ea5565b9392505050565b6114898161103b565b811461149457600080fd5b50565b6000815190506114a681611480565b92915050565b6000602082840312156114c2576114c1610ecf565b5b60006114d084828501611497565b91505092915050565b60006040820190506114ee6000830185610ea5565b6114fb6020830184610ea5565b9392505050565b7f4e487b7100000000000000000000000000000000000000000000000000000000600052602260045260246000fd5b6000600282049050600182168061154957607f821691505b60208210810361155c5761155b611502565b5b50919050565b7f5472616e73666972612061207175616e74696120636f72726574610000000000600082015250565b6000611598601b83610f38565b91506115a382611562565b602082019050919050565b600060208201905081810360008301526115c78161158b565b9050919050565b7f41207175616e74696461646520696e73657269646120c3a9206d61696f72207160008201527f75652061207175616e74696461646520646520746f6b656e732064612061646d60208201527f696e6973747261646f7261000000000000000000000000000000000000000000604082015250565b6000611650604b83610f38565b915061165b826115ce565b606082019050919050565b6000602082019050818103600083015261167f81611643565b9050919050565b7f41646d696e6973747261646f7261206ec3a36f20706f646520636f6d7072617260008201527f20646f207072c3b37072696f20636f6e747261746f0000000000000000000000602082015250565b60006116e2603583610f38565b91506116ed82611686565b604082019050919050565b60006020820190508181036000830152611711816116d5565b9050919050565b600060608201905061172d6000830186610ea5565b61173a6020830185610ea5565b6117476040830184611375565b949350505050565b7f46756ec3a7c3a36f206578636c75736976612064612061646d696e697374726160008201527f646f726121000000000000000000000000000000000000000000000000000000602082015250565b60006117ab602583610f38565b91506117b68261174f565b604082019050919050565b600060208201905081810360008301526117da8161179e565b905091905056fea26469706673582212205ee69391315a8ad459f63890472f4771aeca1fb57338a31b850c1c7a8ebdcd2e64736f6c63430008110033",
  "immutableReferences": {},
  "source": "// SPDX-License-Identifier: MIT\npragma solidity ^0.8.0;\n\nimport \"./Tocoi.sol\";\n\ncontract TocoiMarket {\n    Tocoi public token;\n\n    string public name;\n    uint public area;\n    uint public precoTotal;\n    address public administradora;\n    uint public comprasCount=0;\n    CotasCompradas[] public cotasCompradas;\n    uint public taxaInversa; // Taxa da compra de cotas pela administradora: 1/x\n\n    struct CotasCompradas {\n        uint id;\n        uint precoPago;\n        uint qtde;\n        address owner;\n        bool devolvida;\n    }\n\n    event AlteraPreco (\n        uint price\n    );\n\n    event CompraCota (\n        uint id,\n        uint price,\n        address owner\n    );\n\n    event DevolveCota (\n        uint id,\n        uint taxaPaga\n    );\n\n    constructor(Tocoi _token) {\n        name = \"Tocoi Market\";\n        area = 10000; // 10000,00 m\n        precoTotal = 200; // 200 ETH\n        administradora = 0x90F8bf6A479f320ead074411a4B0e7944Ea8c9C1;\n        taxaInversa = 5; // 20% de taxa\n        token = _token;\n        token.mintaTokens(2000); // 2000 Tocoi\n    }\n\n    \n    function alteraPreco(uint _price) public {\n        require(msg.sender==administradora, unicode\"Funo exclusiva da administradora!\");\n        precoTotal = _price;\n        emit AlteraPreco(precoTotal);\n    }\n\n    function compraCota(uint _qtde) public payable { // _qtde deve vir multiplicado por 100\n\n        // Checa o preo da cota\n        uint _quantiaPagaPorCotaX100 = (msg.value*10000/(_qtde));\n        uint _quantiaNecessariaPorCotaX100 = precoTotal*10000/token.totalSupply();\n        require(_quantiaPagaPorCotaX100  >= _quantiaNecessariaPorCotaX100, unicode\"Transfira a quantia correta\");\n\n        address payable _seller = payable(administradora);\n\n        address payable buyer = payable(msg.sender);\n\n        // Require para checar se h tokens o suficiente para realizar a transao\n        uint balance = token.balanceOf(address(this));\n        require(balance >= _qtde, unicode\"A quantidade inserida  maior que a quantidade de tokens da administradora\");\n        // Require para a administradora no estar comprando\n        require(buyer != _seller, unicode\"Administradora no pode comprar do prprio contrato\");\n\n        // Transfere o valor  administradora\n        _seller.transfer(msg.value);\n        // Transfere token ao cotista\n        token.transfer(buyer, _qtde);\n\n        // Adiciona o cotasCompradas\n        cotasCompradas.push(CotasCompradas(comprasCount, msg.value,_qtde, msg.sender, false));\n        // Increment CotasCompradas\n        comprasCount = cotasCompradas.length;\n\n        emit CompraCota(comprasCount, msg.value, buyer);\n    }\n\n    function devolveCota(uint _id) public payable {\n        CotasCompradas memory cotaComp = cotasCompradas[_id];\n        // Require para checar se  realmente o dono\n        require(cotaComp.id >= 0 && cotaComp.owner == msg.sender, unicode\"Id ou proprietrio invlido\");\n\n        address payable _seller = payable(msg.sender);\n\n        address payable buyer = payable(administradora);\n\n        // Require para checar se o valor passado corresponde ao que ser devolvido\n        require(msg.value*10000 >= (precoTotal*10000/token.totalSupply())/taxaInversa, unicode\"Transfira a quantia correta para a taxa de devoluo\");\n\n        // Require para checar se h tokens o suficiente para realizar a transao\n        uint balance = token.balanceOf(_seller);\n        require(balance >= cotaComp.qtde, unicode\"A quantidade de Tocoi da conta  menor que a referida cota comprada\");\n\n        // Transfere o valor da taxa  administradora\n        buyer.transfer(msg.value);\n        // Devolve os token ao contrato\n        token.transfer(buyer, cotaComp.qtde);\n\n        // Atualiza o array das cotas compradas\n        cotaComp.devolvida = true;\n        cotasCompradas[_id] = cotaComp;\n\n        emit DevolveCota(_id, msg.value);\n    }\n}",
  "sourcePath": "/pucmg/pucmg-tocoi-01/src/contracts/TocoiMarket.sol",
  "compiler": {
    "name": "solc",
    "version": "0.8.17+commit.8df45f5f.Emscripten.clang"
  },
  "schemaVersion": "3.4.11",
  "updatedAt": "2022-12-07T22:12:43.918Z",
  "networkType": "ethereum",
  "devdoc": {
    "kind": "dev",
    "methods": {},
    "version": 1
  },
  "userdoc": {
    "kind": "user",
    "methods": {},
    "version": 1
  }
}